{
  "contractName": "MilestonesContract",
  "abi": [
    {
      "inputs": [
        {
          "internalType": "contract PartyContract",
          "name": "_partyRef",
          "type": "address"
        },
        {
          "internalType": "contract TenderContract",
          "name": "_tenderRef",
          "type": "address"
        },
        {
          "internalType": "contract BidContract",
          "name": "_bidRef",
          "type": "address"
        }
      ],
      "stateMutability": "nonpayable",
      "type": "constructor"
    },
    {
      "inputs": [],
      "name": "bidRef",
      "outputs": [
        {
          "internalType": "contract BidContract",
          "name": "",
          "type": "address"
        }
      ],
      "stateMutability": "view",
      "type": "function",
      "constant": true
    },
    {
      "inputs": [],
      "name": "partyRef",
      "outputs": [
        {
          "internalType": "contract PartyContract",
          "name": "",
          "type": "address"
        }
      ],
      "stateMutability": "view",
      "type": "function",
      "constant": true
    },
    {
      "inputs": [],
      "name": "tenderRef",
      "outputs": [
        {
          "internalType": "contract TenderContract",
          "name": "",
          "type": "address"
        }
      ],
      "stateMutability": "view",
      "type": "function",
      "constant": true
    },
    {
      "inputs": [
        {
          "internalType": "uint256[]",
          "name": "_milestoneTimePeriods",
          "type": "uint256[]"
        },
        {
          "internalType": "uint256",
          "name": "_bidId",
          "type": "uint256"
        },
        {
          "internalType": "uint256",
          "name": "_tenderId",
          "type": "uint256"
        }
      ],
      "name": "setMilestoneTimeline",
      "outputs": [],
      "stateMutability": "nonpayable",
      "type": "function"
    },
    {
      "inputs": [
        {
          "internalType": "uint256",
          "name": "_tenderId",
          "type": "uint256"
        },
        {
          "internalType": "uint256",
          "name": "_milestoneNumber",
          "type": "uint256"
        },
        {
          "internalType": "uint256",
          "name": "_days",
          "type": "uint256"
        }
      ],
      "name": "markMilestoneComplete",
      "outputs": [],
      "stateMutability": "nonpayable",
      "type": "function"
    },
    {
      "inputs": [
        {
          "internalType": "uint256",
          "name": "_tenderId",
          "type": "uint256"
        },
        {
          "internalType": "bool",
          "name": "approval",
          "type": "bool"
        }
      ],
      "name": "approveMilestoneCompletion",
      "outputs": [],
      "stateMutability": "nonpayable",
      "type": "function"
    },
    {
      "inputs": [
        {
          "internalType": "uint256",
          "name": "_tenderId",
          "type": "uint256"
        }
      ],
      "name": "projectCompleted",
      "outputs": [],
      "stateMutability": "nonpayable",
      "type": "function"
    },
    {
      "inputs": [
        {
          "internalType": "uint256",
          "name": "_tenderId",
          "type": "uint256"
        }
      ],
      "name": "projectHalt",
      "outputs": [],
      "stateMutability": "nonpayable",
      "type": "function"
    },
    {
      "inputs": [
        {
          "internalType": "uint256",
          "name": "_tenderId",
          "type": "uint256"
        },
        {
          "internalType": "uint256",
          "name": "_days",
          "type": "uint256"
        }
      ],
      "name": "addMilestone",
      "outputs": [],
      "stateMutability": "nonpayable",
      "type": "function"
    }
  ],
  "bytecode": "0x60806040523480156200001157600080fd5b506040516200293b3803806200293b83398181016040528101906200003791906200020a565b826000806101000a81548173ffffffffffffffffffffffffffffffffffffffff021916908373ffffffffffffffffffffffffffffffffffffffff16021790555081600160006101000a81548173ffffffffffffffffffffffffffffffffffffffff021916908373ffffffffffffffffffffffffffffffffffffffff16021790555080600260006101000a81548173ffffffffffffffffffffffffffffffffffffffff021916908373ffffffffffffffffffffffffffffffffffffffff16021790555050505062000266565b600080fd5b600073ffffffffffffffffffffffffffffffffffffffff82169050919050565b6000620001348262000107565b9050919050565b6000620001488262000127565b9050919050565b6200015a816200013b565b81146200016657600080fd5b50565b6000815190506200017a816200014f565b92915050565b60006200018d8262000127565b9050919050565b6200019f8162000180565b8114620001ab57600080fd5b50565b600081519050620001bf8162000194565b92915050565b6000620001d28262000127565b9050919050565b620001e481620001c5565b8114620001f057600080fd5b50565b6000815190506200020481620001d9565b92915050565b60008060006060848603121562000226576200022562000102565b5b6000620002368682870162000169565b93505060206200024986828701620001ae565b92505060406200025c86828701620001f3565b9150509250925092565b6126c580620002766000396000f3fe608060405234801561001057600080fd5b50600436106100935760003560e01c806374862d471161006657806374862d471461010857806375607db8146101265780638d455399146101425780638d5b861214610160578063e21c42181461017e57610093565b80633c2c02f3146100985780634093c22b146100b45780635601477b146100d05780636bf26ab1146100ec575b600080fd5b6100b260048036038101906100ad91906118cf565b61019a565b005b6100ce60048036038101906100c99190611a68565b6102e1565b005b6100ea60048036038101906100e59190611ad7565b6107fc565b005b61010660048036038101906101019190611b17565b6109e6565b005b610110610ef0565b60405161011d9190611bc3565b60405180910390f35b610140600480360381019061013b9190611b17565b610f16565b005b61014a611369565b6040516101579190611bff565b60405180910390f35b61016861138d565b6040516101759190611c3b565b60405180910390f35b61019860048036038101906101939190611c56565b6113b3565b005b6000600160009054906101000a900473ffffffffffffffffffffffffffffffffffffffff1673ffffffffffffffffffffffffffffffffffffffff16637e4d2d97846040518263ffffffff1660e01b81526004016101f79190611cb8565b602060405180830381865afa158015610214573d6000803e3d6000fd5b505050506040513d601f19601f820116820180604052508101906102389190611d11565b90503373ffffffffffffffffffffffffffffffffffffffff168173ffffffffffffffffffffffffffffffffffffffff16146102a8576040517f08c379a000000000000000000000000000000000000000000000000000000000815260040161029f90611dc1565b60405180910390fd5b6000600360008581526020019081526020016000209050828160070160006101000a81548160ff02191690831515021790555050505050565b6000600160009054906101000a900473ffffffffffffffffffffffffffffffffffffffff1673ffffffffffffffffffffffffffffffffffffffff16637e4d2d97836040518263ffffffff1660e01b815260040161033e9190611cb8565b602060405180830381865afa15801561035b573d6000803e3d6000fd5b505050506040513d601f19601f8201168201806040525081019061037f9190611d11565b90506000600160009054906101000a900473ffffffffffffffffffffffffffffffffffffffff1673ffffffffffffffffffffffffffffffffffffffff1663e2e5384d846040518263ffffffff1660e01b81526004016103de9190611cb8565b602060405180830381865afa1580156103fb573d6000803e3d6000fd5b505050506040513d601f19601f8201168201806040525081019061041f9190611df6565b90503373ffffffffffffffffffffffffffffffffffffffff168273ffffffffffffffffffffffffffffffffffffffff161461048f576040517f08c379a000000000000000000000000000000000000000000000000000000000815260040161048690611e95565b60405180910390fd5b60006003600085815260200190815260200160002090506000600260009054906101000a900473ffffffffffffffffffffffffffffffffffffffff1673ffffffffffffffffffffffffffffffffffffffff16635fa38280876040518263ffffffff1660e01b81526004016105039190611cb8565b602060405180830381865afa158015610520573d6000803e3d6000fd5b505050506040513d601f19601f820116820180604052508101906105449190611d11565b90508682600401908051906020019061055e929190611722565b50338260010160006101000a81548173ffffffffffffffffffffffffffffffffffffffff021916908373ffffffffffffffffffffffffffffffffffffffff160217905550808260020160006101000a81548173ffffffffffffffffffffffffffffffffffffffff021916908373ffffffffffffffffffffffffffffffffffffffff16021790555082826003018190555084826000018190555060008260070160006101000a81548160ff02191690831515021790555060008260070160016101000a81548160ff0219169083600281111561063c5761063b611eb5565b5b02179055508160036000878152602001908152602001600020600082015481600001556001820160009054906101000a900473ffffffffffffffffffffffffffffffffffffffff168160010160006101000a81548173ffffffffffffffffffffffffffffffffffffffff021916908373ffffffffffffffffffffffffffffffffffffffff1602179055506002820160009054906101000a900473ffffffffffffffffffffffffffffffffffffffff168160020160006101000a81548173ffffffffffffffffffffffffffffffffffffffff021916908373ffffffffffffffffffffffffffffffffffffffff16021790555060038201548160030155600482018160040190805461074d92919061176f565b50600582018160050190805461076492919061176f565b50600682018160060190805461077b9291906117c1565b506007820160009054906101000a900460ff168160070160006101000a81548160ff0219169083151502179055506007820160019054906101000a900460ff168160070160016101000a81548160ff021916908360028111156107e1576107e0611eb5565b5b02179055506008820154816008015590505050505050505050565b6000600160009054906101000a900473ffffffffffffffffffffffffffffffffffffffff1673ffffffffffffffffffffffffffffffffffffffff16637e4d2d97846040518263ffffffff1660e01b81526004016108599190611cb8565b602060405180830381865afa158015610876573d6000803e3d6000fd5b505050506040513d601f19601f8201168201806040525081019061089a9190611d11565b90503373ffffffffffffffffffffffffffffffffffffffff168173ffffffffffffffffffffffffffffffffffffffff161461090a576040517f08c379a000000000000000000000000000000000000000000000000000000000815260040161090190611f56565b60405180910390fd5b60006003600085815260200190815260200160002090506000600281111561093557610934611eb5565b5b8160070160019054906101000a900460ff16600281111561095957610958611eb5565b5b14610999576040517f08c379a000000000000000000000000000000000000000000000000000000000815260040161099090611fe8565b60405180910390fd5b8060040183908060018154018082558091505060019003906000526020600020016000909190919091505560018160030160008282546109d99190612037565b9250508190555050505050565b6000600160009054906101000a900473ffffffffffffffffffffffffffffffffffffffff1673ffffffffffffffffffffffffffffffffffffffff16637e4d2d97836040518263ffffffff1660e01b8152600401610a439190611cb8565b602060405180830381865afa158015610a60573d6000803e3d6000fd5b505050506040513d601f19601f82011682018060405250810190610a849190611d11565b90503373ffffffffffffffffffffffffffffffffffffffff168173ffffffffffffffffffffffffffffffffffffffff1614610af4576040517f08c379a0000000000000000000000000000000000000000000000000000000008152600401610aeb90611dc1565b60405180910390fd5b600060036000848152602001908152602001600020905060028160070160016101000a81548160ff02191690836002811115610b3357610b32611eb5565b5b021790555060008060009054906101000a900473ffffffffffffffffffffffffffffffffffffffff1673ffffffffffffffffffffffffffffffffffffffff16635e09eea1846040518263ffffffff1660e01b8152600401610b94919061209c565b602060405180830381865afa158015610bb1573d6000803e3d6000fd5b505050506040513d601f19601f82011682018060405250810190610bd59190611df6565b90506000826005018054905090506000805b82811015610c3057846005018181548110610c0557610c046120b7565b5b906000526020600020015482610c1b9190612037565b91508080610c28906120e6565b915050610be7565b506000600160009054906101000a900473ffffffffffffffffffffffffffffffffffffffff1673ffffffffffffffffffffffffffffffffffffffff1663e2e5384d886040518263ffffffff1660e01b8152600401610c8e9190611cb8565b602060405180830381865afa158015610cab573d6000803e3d6000fd5b505050506040513d601f19601f82011682018060405250810190610ccf9190611df6565b90508082610cdd919061215d565b84610ce8919061218e565b935060008054906101000a900473ffffffffffffffffffffffffffffffffffffffff1673ffffffffffffffffffffffffffffffffffffffff1663feec475887866040518363ffffffff1660e01b8152600401610d459291906121c2565b600060405180830381600087803b158015610d5f57600080fd5b505af1158015610d73573d6000803e3d6000fd5b505050506000600160009054906101000a900473ffffffffffffffffffffffffffffffffffffffff1673ffffffffffffffffffffffffffffffffffffffff1663471f40fb896040518263ffffffff1660e01b8152600401610dd49190611cb8565b600060405180830381865afa158015610df1573d6000803e3d6000fd5b505050506040513d6000823e3d601f19601f82011682018060405250810190610e1a91906122ae565b90508051935060005b84811015610ee55760008054906101000a900473ffffffffffffffffffffffffffffffffffffffff1673ffffffffffffffffffffffffffffffffffffffff1663feec4758838381518110610e7a57610e796120b7565b5b6020026020010151886040518363ffffffff1660e01b8152600401610ea09291906121c2565b600060405180830381600087803b158015610eba57600080fd5b505af1158015610ece573d6000803e3d6000fd5b505050508080610edd906120e6565b915050610e23565b505050505050505050565b600260009054906101000a900473ffffffffffffffffffffffffffffffffffffffff1681565b6000600160009054906101000a900473ffffffffffffffffffffffffffffffffffffffff1673ffffffffffffffffffffffffffffffffffffffff16637e4d2d97836040518263ffffffff1660e01b8152600401610f739190611cb8565b602060405180830381865afa158015610f90573d6000803e3d6000fd5b505050506040513d601f19601f82011682018060405250810190610fb49190611d11565b90503373ffffffffffffffffffffffffffffffffffffffff168173ffffffffffffffffffffffffffffffffffffffff1614611024576040517f08c379a000000000000000000000000000000000000000000000000000000000815260040161101b90611dc1565b60405180910390fd5b60006003600084815260200190815260200160002090506000600160009054906101000a900473ffffffffffffffffffffffffffffffffffffffff1673ffffffffffffffffffffffffffffffffffffffff1663e2e5384d856040518263ffffffff1660e01b81526004016110989190611cb8565b602060405180830381865afa1580156110b5573d6000803e3d6000fd5b505050506040513d601f19601f820116820180604052508101906110d99190611df6565b905080826008015414611121576040517f08c379a000000000000000000000000000000000000000000000000000000000815260040161111890612369565b60405180910390fd5b60018260070160016101000a81548160ff0219169083600281111561114957611148611eb5565b5b021790555060008060009054906101000a900473ffffffffffffffffffffffffffffffffffffffff1673ffffffffffffffffffffffffffffffffffffffff16635e09eea18460020160009054906101000a900473ffffffffffffffffffffffffffffffffffffffff166040518263ffffffff1660e01b81526004016111ce919061209c565b602060405180830381865afa1580156111eb573d6000803e3d6000fd5b505050506040513d601f19601f8201168201806040525081019061120f9190611df6565b905060008190506000805b8481101561126357856006018181548110611238576112376120b7565b5b90600052602060002001548261124e9190612393565b9150808061125b906120e6565b91505061121a565b50600084826112729190612427565b9050600081846112829190612393565b9050600581111561129657600594506112ad565b60008110156112a857600094506112ac565b8094505b5b60008054906101000a900473ffffffffffffffffffffffffffffffffffffffff1673ffffffffffffffffffffffffffffffffffffffff1663feec47588860020160009054906101000a900473ffffffffffffffffffffffffffffffffffffffff16876040518363ffffffff1660e01b815260040161132c9291906121c2565b600060405180830381600087803b15801561134657600080fd5b505af115801561135a573d6000803e3d6000fd5b50505050505050505050505050565b60008054906101000a900473ffffffffffffffffffffffffffffffffffffffff1681565b600160009054906101000a900473ffffffffffffffffffffffffffffffffffffffff1681565b60006003600085815260200190815260200160002090503373ffffffffffffffffffffffffffffffffffffffff168160020160009054906101000a900473ffffffffffffffffffffffffffffffffffffffff1673ffffffffffffffffffffffffffffffffffffffff161461145c576040517f08c379a000000000000000000000000000000000000000000000000000000000815260040161145390611dc1565b60405180910390fd5b60008160050160018561146f919061218e565b815481106114805761147f6120b7565b5b9060005260206000200154146114cb576040517f08c379a00000000000000000000000000000000000000000000000000000000081526004016114c2906124dd565b60405180910390fd5b6001831015611544576000816005016002856114e7919061218e565b815481106114f8576114f76120b7565b5b906000526020600020015403611543576040517f08c379a000000000000000000000000000000000000000000000000000000000815260040161153a9061256f565b60405180910390fd5b5b600160009054906101000a900473ffffffffffffffffffffffffffffffffffffffff1673ffffffffffffffffffffffffffffffffffffffff1663e2e5384d856040518263ffffffff1660e01b815260040161159f9190611cb8565b602060405180830381865afa1580156115bc573d6000803e3d6000fd5b505050506040513d601f19601f820116820180604052508101906115e09190611df6565b8310611621576040517f08c379a0000000000000000000000000000000000000000000000000000000008152600401611618906125db565b60405180910390fd5b60008160070160009054906101000a900460ff169050801561171b578160050183908060018154018082558091505060019003906000526020600020016000909190919091505560008260040160018661167b919061218e565b8154811061168c5761168b6120b7565b5b906000526020600020015490508084826116a691906125fb565b6116b09190612427565b836006016001876116c1919061218e565b815481106116d2576116d16120b7565b5b906000526020600020018190555060008360070160006101000a81548160ff02191690831515021790555060018360080160008282546117129190612037565b92505081905550505b5050505050565b82805482825590600052602060002090810192821561175e579160200282015b8281111561175d578251825591602001919060010190611742565b5b50905061176b9190611813565b5090565b8280548282559060005260206000209081019282156117b05760005260206000209182015b828111156117af578254825591600101919060010190611794565b5b5090506117bd9190611813565b5090565b8280548282559060005260206000209081019282156118025760005260206000209182015b828111156118015782548255916001019190600101906117e6565b5b50905061180f9190611830565b5090565b5b8082111561182c576000816000905550600101611814565b5090565b5b80821115611849576000816000905550600101611831565b5090565b6000604051905090565b600080fd5b600080fd5b6000819050919050565b61187481611861565b811461187f57600080fd5b50565b6000813590506118918161186b565b92915050565b60008115159050919050565b6118ac81611897565b81146118b757600080fd5b50565b6000813590506118c9816118a3565b92915050565b600080604083850312156118e6576118e5611857565b5b60006118f485828601611882565b9250506020611905858286016118ba565b9150509250929050565b600080fd5b6000601f19601f8301169050919050565b7f4e487b7100000000000000000000000000000000000000000000000000000000600052604160045260246000fd5b61195d82611914565b810181811067ffffffffffffffff8211171561197c5761197b611925565b5b80604052505050565b600061198f61184d565b905061199b8282611954565b919050565b600067ffffffffffffffff8211156119bb576119ba611925565b5b602082029050602081019050919050565b600080fd5b60006119e46119df846119a0565b611985565b90508083825260208201905060208402830185811115611a0757611a066119cc565b5b835b81811015611a305780611a1c8882611882565b845260208401935050602081019050611a09565b5050509392505050565b600082601f830112611a4f57611a4e61190f565b5b8135611a5f8482602086016119d1565b91505092915050565b600080600060608486031215611a8157611a80611857565b5b600084013567ffffffffffffffff811115611a9f57611a9e61185c565b5b611aab86828701611a3a565b9350506020611abc86828701611882565b9250506040611acd86828701611882565b9150509250925092565b60008060408385031215611aee57611aed611857565b5b6000611afc85828601611882565b9250506020611b0d85828601611882565b9150509250929050565b600060208284031215611b2d57611b2c611857565b5b6000611b3b84828501611882565b91505092915050565b600073ffffffffffffffffffffffffffffffffffffffff82169050919050565b6000819050919050565b6000611b89611b84611b7f84611b44565b611b64565b611b44565b9050919050565b6000611b9b82611b6e565b9050919050565b6000611bad82611b90565b9050919050565b611bbd81611ba2565b82525050565b6000602082019050611bd86000830184611bb4565b92915050565b6000611be982611b90565b9050919050565b611bf981611bde565b82525050565b6000602082019050611c146000830184611bf0565b92915050565b6000611c2582611b90565b9050919050565b611c3581611c1a565b82525050565b6000602082019050611c506000830184611c2c565b92915050565b600080600060608486031215611c6f57611c6e611857565b5b6000611c7d86828701611882565b9350506020611c8e86828701611882565b9250506040611c9f86828701611882565b9150509250925092565b611cb281611861565b82525050565b6000602082019050611ccd6000830184611ca9565b92915050565b6000611cde82611b44565b9050919050565b611cee81611cd3565b8114611cf957600080fd5b50565b600081519050611d0b81611ce5565b92915050565b600060208284031215611d2757611d26611857565b5b6000611d3584828501611cfc565b91505092915050565b600082825260208201905092915050565b7f596f75277265206e6f7420617574686f72697a656420746f20706572666f726d60008201527f207468697320616374696f6e2e00000000000000000000000000000000000000602082015250565b6000611dab602d83611d3e565b9150611db682611d4f565b604082019050919050565b60006020820190508181036000830152611dda81611d9e565b9050919050565b600081519050611df08161186b565b92915050565b600060208284031215611e0c57611e0b611857565b5b6000611e1a84828501611de1565b91505092915050565b7f596f75277265206e6f7420617574686f72697a656420746f20706572666f726d60008201527f20746869732066756e6374696f6e2e0000000000000000000000000000000000602082015250565b6000611e7f602f83611d3e565b9150611e8a82611e23565b604082019050919050565b60006020820190508181036000830152611eae81611e72565b9050919050565b7f4e487b7100000000000000000000000000000000000000000000000000000000600052602160045260246000fd5b7f596f75277265206e6f7420617574686f726973656420746f20706572666f726d60008201527f207468697320616374696f6e2e00000000000000000000000000000000000000602082015250565b6000611f40602d83611d3e565b9150611f4b82611ee4565b604082019050919050565b60006020820190508181036000830152611f6f81611f33565b9050919050565b7f50726f6a656374206973206e6f74206163746976652c2063616e27742061646460008201527f206d696c6573746f6e65732e0000000000000000000000000000000000000000602082015250565b6000611fd2602c83611d3e565b9150611fdd82611f76565b604082019050919050565b6000602082019050818103600083015261200181611fc5565b9050919050565b7f4e487b7100000000000000000000000000000000000000000000000000000000600052601160045260246000fd5b600061204282611861565b915061204d83611861565b9250827fffffffffffffffffffffffffffffffffffffffffffffffffffffffffffffffff0382111561208257612081612008565b5b828201905092915050565b61209681611cd3565b82525050565b60006020820190506120b1600083018461208d565b92915050565b7f4e487b7100000000000000000000000000000000000000000000000000000000600052603260045260246000fd5b60006120f182611861565b91507fffffffffffffffffffffffffffffffffffffffffffffffffffffffffffffffff820361212357612122612008565b5b600182019050919050565b7f4e487b7100000000000000000000000000000000000000000000000000000000600052601260045260246000fd5b600061216882611861565b915061217383611861565b9250826121835761218261212e565b5b828204905092915050565b600061219982611861565b91506121a483611861565b9250828210156121b7576121b6612008565b5b828203905092915050565b60006040820190506121d7600083018561208d565b6121e46020830184611ca9565b9392505050565b600067ffffffffffffffff82111561220657612205611925565b5b602082029050602081019050919050565b600061222a612225846121eb565b611985565b9050808382526020820190506020840283018581111561224d5761224c6119cc565b5b835b8181101561227657806122628882611cfc565b84526020840193505060208101905061224f565b5050509392505050565b600082601f8301126122955761229461190f565b5b81516122a5848260208601612217565b91505092915050565b6000602082840312156122c4576122c3611857565b5b600082015167ffffffffffffffff8111156122e2576122e161185c565b5b6122ee84828501612280565b91505092915050565b7f416374696f6e206e6f7420616c6c6f7765642120416c6c206d696c6573746f6e60008201527f657320617265206e6f7420636f6d706c657465642e0000000000000000000000602082015250565b6000612353603583611d3e565b915061235e826122f7565b604082019050919050565b6000602082019050818103600083015261238281612346565b9050919050565b6000819050919050565b600061239e82612389565b91506123a983612389565b9250817f7fffffffffffffffffffffffffffffffffffffffffffffffffffffffffffffff038313600083121516156123e4576123e3612008565b5b817f800000000000000000000000000000000000000000000000000000000000000003831260008312161561241c5761241b612008565b5b828201905092915050565b600061243282612389565b915061243d83612389565b92508261244d5761244c61212e565b5b600160000383147f80000000000000000000000000000000000000000000000000000000000000008314161561248657612485612008565b5b828205905092915050565b7f4d696c6573746f6e6520616c726561647920636f6d706c657465642e00000000600082015250565b60006124c7601c83611d3e565b91506124d282612491565b602082019050919050565b600060208201905081810360008301526124f6816124ba565b9050919050565b7f416374696f6e206e6f7420616c6c6f7765642e50726576696f7573206d696c6560008201527f73746f6e6520697320796574206e6f7420636f6d706c657465642e0000000000602082015250565b6000612559603b83611d3e565b9150612564826124fd565b604082019050919050565b600060208201905081810360008301526125888161254c565b9050919050565b7f4d696c6573746f6e6520646f65736e2774206578697374732e00000000000000600082015250565b60006125c5601983611d3e565b91506125d08261258f565b602082019050919050565b600060208201905081810360008301526125f4816125b8565b9050919050565b600061260682612389565b915061261183612389565b9250827f80000000000000000000000000000000000000000000000000000000000000000182126000841215161561264c5761264b612008565b5b827f7fffffffffffffffffffffffffffffffffffffffffffffffffffffffffffffff01821360008412161561268457612683612008565b5b82820390509291505056fea264697066735822122076c4deb802efc617079f9870067a3f065c8ed7ef6bec1f59210f094ce12bf48c64736f6c634300080d0033",
  "immutableReferences": {},
  "source": "// SPDX-License-Identifier: GPL-3.0\npragma solidity >=0.7.0 <0.9.0;\n\nimport './PartyContract.sol';\nimport './BidContract.sol';\n\nenum ProjectStatus{ ONGOING, COMPLETED, HALTED } //bid selected - ONGOING, project completed - COMPLETED, project suspended - HALTED\n\ncontract MilestonesContract {\n    PartyContract public partyRef;\n    TenderContract public tenderRef;\n    BidContract public bidRef;\n\n    struct Projects {\n        uint256 tenderId;\n        address issuerAddress;\n        address bidderAddress;\n        uint256 totalMilestones;\n        uint[] milestoneTimePeriods;\n        uint[] completedMilestoneTimePeriods;\n        int[] workScore;\n        bool approvalFromIssuer;\n        ProjectStatus projectStatus;\n        uint256 completedMilestones;\n    }\n\n    constructor(PartyContract _partyRef, TenderContract _tenderRef, BidContract _bidRef){\n        partyRef = _partyRef;\n        tenderRef = _tenderRef;\n        bidRef = _bidRef;\n    }\n    mapping (uint256 => Projects) projects;\n    \n    //set the project attributes\n    function setMilestoneTimeline(uint[] memory _milestoneTimePeriods, uint256 _bidId, uint256 _tenderId) public {\n        address issuerAddress = tenderRef.getIssuerAddress(_tenderId);\n        uint256 _totalMilestones = tenderRef.getTotalMilestones(_tenderId);\n        require(issuerAddress == msg.sender, \"You're not authorized to perform this function.\");\n        Projects storage newProject = projects[_tenderId];\n        address _bidderAddress = bidRef.getBidderAddress(_bidId);\n        newProject.milestoneTimePeriods = _milestoneTimePeriods;\n        newProject.issuerAddress = msg.sender;\n        newProject.bidderAddress = _bidderAddress;\n        newProject.totalMilestones = _totalMilestones;\n        newProject.tenderId = _tenderId;\n        newProject.approvalFromIssuer = false;\n        newProject.projectStatus = ProjectStatus.ONGOING;\n        projects[_tenderId] = newProject;\n    }\n    \n    //mark milestone completed\n    function markMilestoneComplete(uint256 _tenderId, uint _milestoneNumber, uint _days) public {\n        Projects storage project = projects[_tenderId];\n        //Only bidder can mark milestone complete\n        require(project.bidderAddress == msg.sender, \"You're not authorized to perform this action.\");\n        //Completion can be marked only once\n        require(project.completedMilestoneTimePeriods[_milestoneNumber-1] == 0, \"Milestone already completed.\");\n        //All previous milestones should be completed\n        if(_milestoneNumber < 1) {\n            require(project.completedMilestoneTimePeriods[_milestoneNumber-2] != 0, \"Action not allowed.Previous milestone is yet not completed.\");\n        }\n        //Milestone number should be valid\n        require(_milestoneNumber < tenderRef.getTotalMilestones(_tenderId), \"Milestone doesn't exists.\");\n        \n        //modify workScore and save completion days in milestoneCompletion[milestoneNumber-1] after getting approval from issuer\n        bool approval = project.approvalFromIssuer;\n        \n        if(approval) {\n            project.completedMilestoneTimePeriods.push(_days);\n            int decidedDays = int(project.milestoneTimePeriods[_milestoneNumber-1]);\n            project.workScore[_milestoneNumber-1] = int((decidedDays - int(_days)) / decidedDays);\n            project.approvalFromIssuer = false;\n            project.completedMilestones += 1;\n        }\n    }\n\n    function approveMilestoneCompletion(uint256 _tenderId, bool approval) public {\n        address issuerAddress = tenderRef.getIssuerAddress(_tenderId);\n        require(issuerAddress == msg.sender, \"You're not authorized to perform this action.\");\n        Projects storage project = projects[_tenderId];\n        project.approvalFromIssuer = approval;\n    }\n\n    function projectCompleted(uint256 _tenderId) public {\n        address issuerAddress = tenderRef.getIssuerAddress(_tenderId);\n        require(issuerAddress == msg.sender, \"You're not authorized to perform this action.\");\n        Projects storage project = projects[_tenderId];\n        uint len = tenderRef.getTotalMilestones(_tenderId);\n        require(project.completedMilestones == len, \"Action not allowed! All milestones are not completed.\");\n        project.projectStatus = ProjectStatus.COMPLETED;\n        //Get current trust score of the bidder\n        uint256 trustScore = partyRef.getTrustScore(project.bidderAddress);\n        int oldTrustScore = int(trustScore);\n        int sum = 0;\n        for(uint i=0; i < len; i++) {\n            sum = sum + project.workScore[i];\n        }\n        //Average of the workScore of all milestones\n        int avgWorkScore = sum/int(len);\n        //New trustScore = old trustScore + avg(workScore)\n        uint256 newTrustScore = uint(oldTrustScore + avgWorkScore);\n        \n        //Maintaining trustScore value between 0 to 5\n        if(newTrustScore > 5) {\n            trustScore = 5;\n        }\n        else if(newTrustScore < 0) {\n            trustScore = 0;\n        }\n        else {\n            trustScore = newTrustScore;\n        }\n        partyRef.setTrustScore(project.bidderAddress, trustScore);\n    }\n\n    function projectHalt(uint256 _tenderId) public {\n        address issuerAddress = tenderRef.getIssuerAddress(_tenderId);\n        require(issuerAddress == msg.sender, \"You're not authorized to perform this action.\");\n        Projects storage project = projects[_tenderId];\n        project.projectStatus = ProjectStatus.HALTED;\n        //Negative impact on issuer's trust score\n        uint256 trustScore = partyRef.getTrustScore(issuerAddress);\n        uint256 len = project.completedMilestoneTimePeriods.length;\n        uint256 workDays = 0;\n        for(uint256 i=0; i<len; i++) {\n            workDays += project.completedMilestoneTimePeriods[i];\n        }\n        uint256 totalDays = tenderRef.getTotalMilestones(_tenderId);\n        trustScore = trustScore - (workDays/totalDays);\n        partyRef.setTrustScore(issuerAddress, trustScore);\n        \n        //Negative impact on validators' trust score\n        address[] memory validators = tenderRef.getValidators(_tenderId);\n        len = validators.length;\n        for(uint256 i=0; i < len; i++) {\n            partyRef.setTrustScore(validators[i], trustScore);\n        }\n    }\n\n    function addMilestone(uint256 _tenderId, uint256 _days) public {\n        address issuerAddress = tenderRef.getIssuerAddress(_tenderId);\n        require(issuerAddress == msg.sender, \"You're not authorised to perform this action.\");\n        Projects storage project = projects[_tenderId];\n        require(project.projectStatus == ProjectStatus.ONGOING, \"Project is not active, can't add milestones.\");\n\n        project.milestoneTimePeriods.push(_days);\n        project.totalMilestones += 1;\n    }\n    \n    //Filter Projects by the number of milestones completed\n//     function filterProjectsByMilestones(Project[] memory projectList) public view returns(Project[] memory) {\n// \tfor (uint i = 1; i < projectList.length; i++){\n// \t\tfor (uint j = 0; j < i; j++){\n// \t\t\tif (projectList[i].completedMilestones < projectList[j].completedMilestones) {\n// \t\t\t\tProject memory tempProject = projectList[i];\n// \t\t\t\tprojectList[i] = projectList[j];\n// \t\t\t\tprojectList[j] = tempProject;\n// \t\t\t}\n// \t\t}\n// \t}\n// }\n}\n",
  "sourcePath": "C:\\Users\\Aryan Eluka\\Desktop\\BlockchainProj-master\\contracts\\MilestonesContract.sol",
  "compiler": {
    "name": "solc",
    "version": "0.8.13+commit.abaa5c0e.Emscripten.clang"
  },
  "schemaVersion": "3.4.16",
  "updatedAt": "2024-04-08T05:44:08.227Z",
  "networkType": "ethereum",
  "devdoc": {
    "kind": "dev",
    "methods": {},
    "version": 1
  },
  "userdoc": {
    "kind": "user",
    "methods": {},
    "version": 1
  }
}